{
  "contractName": "Payment",
  "abi": [
    {
      "anonymous": false,
      "inputs": [
        {
          "indexed": false,
          "internalType": "uint256",
          "name": "batchIndex",
          "type": "uint256"
        }
      ],
      "name": "BatchFinalized",
      "type": "event"
    },
    {
      "anonymous": false,
      "inputs": [
        {
          "indexed": true,
          "internalType": "address",
          "name": "sender",
          "type": "address"
        },
        {
          "indexed": true,
          "internalType": "address",
          "name": "receiver",
          "type": "address"
        },
        {
          "indexed": false,
          "internalType": "uint256",
          "name": "amount",
          "type": "uint256"
        },
        {
          "indexed": false,
          "internalType": "uint256",
          "name": "batchIndex",
          "type": "uint256"
        }
      ],
      "name": "Transfer",
      "type": "event"
    },
    {
      "inputs": [],
      "name": "MAX_BATCH_SIZE",
      "outputs": [
        {
          "internalType": "uint256",
          "name": "",
          "type": "uint256"
        }
      ],
      "stateMutability": "view",
      "type": "function",
      "constant": true
    },
    {
      "inputs": [
        {
          "internalType": "uint256",
          "name": "",
          "type": "uint256"
        }
      ],
      "name": "batches",
      "outputs": [
        {
          "internalType": "bool",
          "name": "finalized",
          "type": "bool"
        }
      ],
      "stateMutability": "view",
      "type": "function",
      "constant": true
    },
    {
      "inputs": [],
      "name": "currentBatchIndex",
      "outputs": [
        {
          "internalType": "uint256",
          "name": "",
          "type": "uint256"
        }
      ],
      "stateMutability": "view",
      "type": "function",
      "constant": true
    },
    {
      "inputs": [
        {
          "internalType": "address payable",
          "name": "_receiver",
          "type": "address"
        }
      ],
      "name": "sendPayment",
      "outputs": [],
      "stateMutability": "payable",
      "type": "function",
      "payable": true
    }
  ],
  "bytecode": "0x608060405234801561000f575f80fd5b506106308061001d5f395ff3fe60806040526004361061003e575f3560e01c80636090b30e146100425780638a7644a81461006c578063b32c4d8d14610088578063cfdbf254146100c4575b5f80fd5b34801561004d575f80fd5b506100566100ee565b60405161006391906103bd565b60405180910390f35b61008660048036038101906100819190610434565b6100f3565b005b348015610093575f80fd5b506100ae60048036038101906100a99190610489565b610379565b6040516100bb91906104ce565b60405180910390f35b3480156100cf575f80fd5b506100d86103a0565b6040516100e591906103bd565b60405180910390f35b5f5481565b5f3411610135576040517f08c379a000000000000000000000000000000000000000000000000000000000815260040161012c90610541565b60405180910390fd5b5f60015f805481526020019081526020015f209050805f0160405180606001604052803373ffffffffffffffffffffffffffffffffffffffff1681526020018473ffffffffffffffffffffffffffffffffffffffff16815260200134815250908060018154018082558091505060019003905f5260205f2090600302015f909190919091505f820151815f015f6101000a81548173ffffffffffffffffffffffffffffffffffffffff021916908373ffffffffffffffffffffffffffffffffffffffff1602179055506020820151816001015f6101000a81548173ffffffffffffffffffffffffffffffffffffffff021916908373ffffffffffffffffffffffffffffffffffffffff1602179055506040820151816002015550508173ffffffffffffffffffffffffffffffffffffffff166108fc3490811502906040515f60405180830381858888f19350505050158015610293573d5f803e3d5ffd5b508173ffffffffffffffffffffffffffffffffffffffff163373ffffffffffffffffffffffffffffffffffffffff167f9ed053bb818ff08b8353cd46f78db1f0799f31c9e4458fdb425c10eccd2efc44345f546040516102f492919061055f565b60405180910390a3600a815f018054905003610375576001816001015f6101000a81548160ff0219169083151502179055507f5cff112f1cb588779b4e6aae6baf0d738747fcf132f0ff202adcec605f9cabdf5f5460405161035691906103bd565b60405180910390a15f8081548092919061036f906105b3565b91905055505b5050565b6001602052805f5260405f205f91509050806001015f9054906101000a900460ff16905081565b600a81565b5f819050919050565b6103b7816103a5565b82525050565b5f6020820190506103d05f8301846103ae565b92915050565b5f80fd5b5f73ffffffffffffffffffffffffffffffffffffffff82169050919050565b5f610403826103da565b9050919050565b610413816103f9565b811461041d575f80fd5b50565b5f8135905061042e8161040a565b92915050565b5f60208284031215610449576104486103d6565b5b5f61045684828501610420565b91505092915050565b610468816103a5565b8114610472575f80fd5b50565b5f813590506104838161045f565b92915050565b5f6020828403121561049e5761049d6103d6565b5b5f6104ab84828501610475565b91505092915050565b5f8115159050919050565b6104c8816104b4565b82525050565b5f6020820190506104e15f8301846104bf565b92915050565b5f82825260208201905092915050565b7f416d6f756e74206d7573742062652067726561746572207468616e207a65726f5f82015250565b5f61052b6020836104e7565b9150610536826104f7565b602082019050919050565b5f6020820190508181035f8301526105588161051f565b9050919050565b5f6040820190506105725f8301856103ae565b61057f60208301846103ae565b9392505050565b7f4e487b71000000000000000000000000000000000000000000000000000000005f52601160045260245ffd5b5f6105bd826103a5565b91507fffffffffffffffffffffffffffffffffffffffffffffffffffffffffffffffff82036105ef576105ee610586565b5b60018201905091905056fea2646970667358221220b7d3f6019aad3e2ded23d93555c1be266181bcab3b5e7a3bb83a44bf5b7ef40364736f6c63430008150033",
  "immutableReferences": {},
  "source": "// SPDX-License-Identifier: MIT\r\npragma solidity ^0.8.0;\r\n\r\ncontract Payment {\r\n    event Transfer(address indexed sender, address indexed receiver, uint256 amount, uint256 batchIndex);\r\n    event BatchFinalized(uint256 batchIndex);\r\n\r\n    struct Transaction {\r\n        address sender;\r\n        address receiver;\r\n        uint256 amount;\r\n    }\r\n\r\n    struct Batch {\r\n        Transaction[] transactions;\r\n        bool finalized; // Indicates if the batch has been finalized\r\n    }\r\n\r\n    uint256 public constant MAX_BATCH_SIZE = 10; // Limit of transactions per batch\r\n    uint256 public currentBatchIndex; // Tracks the current batch index\r\n    mapping(uint256 => Batch) public batches; // Stores all batches by index\r\n\r\n    function sendPayment(address payable _receiver) public payable {\r\n        require(msg.value > 0, \"Amount must be greater than zero\");\r\n\r\n        Batch storage currentBatch = batches[currentBatchIndex];\r\n\r\n        // Store transaction in the current batch\r\n        currentBatch.transactions.push(Transaction({\r\n            sender: msg.sender,\r\n            receiver: _receiver,\r\n            amount: msg.value\r\n        }));\r\n\r\n        // Transfer funds\r\n        _receiver.transfer(msg.value);\r\n\r\n        emit Transfer(msg.sender, _receiver, msg.value, currentBatchIndex);\r\n\r\n        // Finalize batch if it reaches the maximum size\r\n        if (currentBatch.transactions.length == MAX_BATCH_SIZE) {\r\n            currentBatch.finalized = true;\r\n            emit BatchFinalized(currentBatchIndex);\r\n            currentBatchIndex++; // Start a new batch\r\n        }\r\n    }\r\n}\r\n\r\n// advanced: {\r\n//   port: 8777,             // Custom port\r\n//   network_id: 1342,       // Custom network\r\n//   gas: 8500000,           // Gas sent with each transaction (default: ~6700000)\r\n//   gasPrice: 20000000000,  // 20 gwei (in wei) (default: 100 gwei)\r\n//   from: <address>,        // Account to send transactions from (default: accounts[0])\r\n//   websocket: true         // Enable EventEmitter interface for web3 (default: false)\r\n// },\r\n",
  "sourcePath": "D:\\Sharing_Blockchain_29-11-24\\Blockchain-Eth-Payment\\contracts\\Payment.sol",
  "compiler": {
    "name": "solc",
    "version": "0.8.21+commit.d9974bed.Emscripten.clang"
  },
  "schemaVersion": "3.4.16",
  "updatedAt": "2024-11-28T04:42:10.094Z",
  "networkType": "ethereum",
  "devdoc": {
    "kind": "dev",
    "methods": {},
    "version": 1
  },
  "userdoc": {
    "kind": "user",
    "methods": {},
    "version": 1
  }
}